:100000000C94B4030C94FB030C94FB030C94FB03BF
:100010000C94FB030C94FB030C94FB030C94FB0368
:100020000C94FB030C94FB030C945D2B0C94312C6F
:100030000C94FC220C94FB030C94FB030C94FB0328
:100040000C94FB030C94FB030C94FB030C94FB0338
:100050000C94FB030C9453230C94FB030C94FB03B0
:100060000C94FB030C94FB030C94FB030C94FB0318
:100070000C94FB030C94FB030C94FB030C94FB0308
:100080000C94FB030C94FB030C94FB030C94FB03F8
:100090000C94FB030C94FB030C94FB030C94FB03E8
:1000A0000C94FB030C94FB030C94FB0329001E002F
:1000B0001F0020002100220023002400250026002C
:1000C00027002D002E00310035002B0014001A00EF
:1000D0000800150017001C0018000C001200130087
:1000E0002F0030002A004E003900040016000700DF
:1000F00009000A000B000D000E000F003300340051
:10010000000028000151E10000001D001B00060056
:100110001900050011001000360037003800E50016
:1001200052000000E0000000E200000000000000BB
:100130002C000000E3002C00E600500051004F00AE
:100140004B0001003A003B003C003D003E003F00F8
:10015000400041004200430044004500010001000E
:100160000100010001000100005C0100010001002C
:10017000010001000100010001004C00010001002C
:100180000100010001000100010001000100010067
:100190000100010001000000010001000100000059
:1001A0000100010001000100010001000100010047
:1001B0000100010001000100000001000000010039
:1001C000000000000000010000000100010001002B
:1001D0000100010001000100010001000100010017
:1001E0000100010001000100010001000100010007
:1001F00001000100010001000100010001000100F7
:1002000001000100010001000100010001000100E6
:1002100001000100010001000100010001000100D6
:1002200001000100010001000100010000000100C7
:1002300001000100000001000100010001000100B7
:1002400001000100010001000100010001000000A7
:10025000010000000100000000000000010000009B
:100260000100010001000100010001000100010086
:100270000100010001000100010001000100010076
:100280000100010001000100010001000100010066
:100290000100010001000100010001000100010056
:1002A0000100010001000100010001000100010046
:1002B0000100010001000100010001000100010036
:1002C0000100000001000100010000000100010028
:1002D0000100010001000100010001000100010016
:1002E000010001000000010000000100000000000A
:1002F00000000100000001000100010001000100F8
:100300000100010000000000000000002A2B28006E
:1003100000000000000000000000000000000029B4
:10032000000000002C1E3420212224342627252EF4
:10033000362D3738271E1F2021222324252633332C
:10034000362E37381F0405060708090A0B0C0D0E58
:100350000F101112131415161718191A1B1C1D2F24
:100360003130232D350405060708090A0B0C0D0E44
:100370000F101112131415161718191A1B1C1D2F04
:100380003130354C0000000000000000000000008B
:1003900000000000000000007E0F00D4FFFFFFC738
:1003A0000000007832190A00047F3F1F6432146491
:1003B0003214783C1E1E140A052223252628292AD9
:1003C0002C2D2F3032333536383A3B3D3E404243B8
:1003D0004547494A4C4E5051535557595A5C5E60F7
:1003E00062646668696B6D6F71737577797B7D7F09
:1003F00081838587898A8C8E90929496989A9C9E08
:100400009FA1A3A5A7A8AAACAEAFB1B3B4B6B8B923
:10041000BBBCBEBFC1C2C3C5C6C7C9CACBCCCDCE8B
:10042000D0D1D2D2D3D4D5D6D7D7D8D9D9DADADB6E
:10043000DBDBDCDCDCDCDCDDDDDDDDDCDCDCDCDCFA
:10044000DBDBDBDADAD9D9D8D7D7D6D5D4D3D2D239
:10045000D1D0CECDCCCBCAC9C7C6C5C3C2C1BFBE21
:10046000BCBBB9B8B6B4B3B1AFAEACAAA8A7A5A38C
:10047000A19F9E9C9A98969492908E8C8A8987854B
:1004800083817F7D7B79777573716F6D6B6968662A
:100490006462605E5C5A5957555351504E4C4A49FC
:1004A00047454342403E3D3B3A3836353332302FA4
:1004B0002D2C2A292826252322FFAA7F554000011A
:1004C0000101010101010101020202020202020214
:1004D00002030303030303030304040404040404E6
:1004E00005050505050606060606070707070708AA
:1004F000080808090909090A0A0A0B0B0B0C0C0C5D
:100500000D0D0D0E0E0E0F0F0F10101111111212F6
:1005100013131414151516161717181819191A1A73
:100520001B1B1C1D1D1E1E1F2020212222232424D4
:10053000252626272829292A2B2C2D2D2E2F303110
:100540003232333435363738393A3B3C3D3E3F4022
:100550004142434445464748494A4C4D4E4F50510D
:100560005354555658595A5B5D5E5F6162646566C7
:1005700068696B6C6D6F7072737577787A7B7D7E4E
:100580008082838587888A8C8E8F91939596989A9E
:100590009C9EA0A2A3A5A7A9ABADAFB1B3B5B7BAB6
:1005A000BCBEC0C2C4C6C9CBCDCFD1D4D6D8DBDD8A
:1005B000DFE2E4E7E9EBEEF0F3F5F8FAFDFF0C0318
:1005C000570049004E004700530000000A0359003D
:1005D0004D0044004B0000000403090409025B00C5
:1005E000030100A0FA090400000103010100092130
:1005F000110100012240000705810308000A0904D7
:100600000100020300000009211101000122220063
:1006100007058203200001070503032000010904E8
:100620000200010300000009211101000122BC00A9
:100630000705840320000A12011001000000084D84
:100640005975290100010200010660FF0961A1013D
:100650000962150026FF00952075088102096315BF
:100660000026FF00952075089102C005010902A12E
:100670000185020901A100050919012905150025B7
:100680000195057501810295017503810105010937
:100690003009311581257F950275088106093815C5
:1006A00081257F950175088106050C0A38021581A0
:1006B000257F950175088106C0C005010980A1014B
:1006C000850319012AB700150126B7009501751099
:1006D0008100C0050C0901A101850419012AA002AD
:1006E000150126A002950175108100C005010906BB
:1006F000A1018505050719E029E7150025019508E1
:10070000750181020507190029EF1500250195F0F3
:1007100075018102050819012905950575019102E8
:10072000950175039101C005010906A1010507198D
:10073000E029E715002501950875018102950175ED
:100740000881010507190029FF150026FF009506FD
:1007500075088100050819012905950575019102A3
:10076000950175039101C00011241FBECFEFDAE09F
:10077000DEBFCDBF04B603FE27C080916703909112
:100780006803A0916903B0916A038730904BA7403A
:10079000B04BD1F410926703109268031092690372
:1007A00010926A0314BE84B7877F84BF0FB6F89493
:1007B000A89580916000886180936000109260002D
:1007C0000FBEE0E0F8E3099511E0A0E0B1E0ECE451
:1007D000FFE502C005900D92AC3DB107D9F723E0CB
:1007E000ACEDB1E001C01D92A736B207E1F70E945F
:1007F00023280C94552F0C94000081E0089581E08B
:1008000008950C94FF0308950C9403041F93CF9351
:10081000DF9300D000D00F92CDB7DEB749835A8363
:100820006B833091460289819A8131111DC0662304
:10083000B9F02223A9F00E94DC1F182F682F8981AC
:100840009A810E94881F69817A81812F0F900F9071
:100850000F900F900F90DF91CF911F910C94811307
:100860000E94B41F182FEFCF0E94DC1F69817A818C
:10087000EDCFFC01262F40815181628173818481FB
:100880000C940604CF93DF93EC0160E00E943904DE
:10089000BE01DF91CF910C940404FF920F931F933C
:1008A000CF93DF93E82FF0E0EC5FFC4FF490C82F7C
:1008B000C695C695C695D0E0FE01EC56FC4F049156
:1008C000877010E0082E02C0159507950A94E2F78C
:1008D00001701127CC57DC4FFE01C491D0E002C05B
:1008E000D595C7958A95E2F7C170DD2701151105E9
:1008F00019F081EE0E94E317209719F086EE0E940E
:10090000E3178F2D0E946018CD2B19F086EE0E9400
:100910003118012B41F081EEDF91CF911F910F91A2
:10092000FF900C943118DF91CF911F910F91FF90A0
:100930000895EF92FF920F931F93CF93DF93EC01F3
:10094000162F0AE08881882309F454C0813009F009
:100950004EC08981813099F47E0122E0E20EF11CC3
:100960008A810E946018E7012196812F815050F3FF
:10097000EFE9FFE03197F1F700C00000F7CF8230D8
:1009800041F47E0182E0E80EF11C8A810E94E317A7
:10099000EACF833041F47E01E2E0EE0EF11C8A8161
:1009A0000E943118E0CF843011F02196DDCF2A81EA
:1009B000229690E080E0AE014F5F5F4F2053330BF3
:1009C0002A30310548F0019778F2EFE9FFE03197DE
:1009D000F1F700C00000F7CF089FB001099F700D2C
:1009E0001124C901860F971F2981EA01E4CF0E94D3
:1009F0004D04BACFDF91CF911F910F91FF90EF90EF
:100A0000089560E00C9499048F929F92AF92BF92E8
:100A1000CF92DF92EF92FF920F931F936B017C01B5
:100A200081E090E0A0E0B0E04C015D0104C0880CE2
:100A3000991CAA1CBB1C4A95D2F7B501A4014C0114
:100A40005D0104C0880C991CAA1CBB1C2A95D2F716
:100A5000482959296A297B2904C0880F991FAA1F90
:100A6000BB1F0A95D2F78A019B010C211D212E2163
:100A70003F21041715072607370789F48C299D297C
:100A8000AE29BF29BC01CD011F910F91FF90EF90BE
:100A9000DF90CF90BF90AF909F908F9008958095FA
:100AA0009095A095B0958C219D21AE21BF21EACFD4
:100AB0000F93382F262F6091B1027091B20280916E
:100AC000B3029091B402042F432F0E9404050F91AA
:100AD0000C94C61E0E949D230E942621811102C0F3
:100AE0000E94CA210C94D9070C94DC0708950E9437
:100AF000EF1A0E9476052FEF84E39CE0215080409E
:100B00009040E1F700C000000C9477230F931F93EF
:100B1000CF93DF93EC0161E00E9439048C01BE01A8
:100B20000E945611882389F1BE01C8010E94010468
:100B3000882359F1BE01C8010E94D714882329F1E6
:100B4000BE01C8010E9429158823F9F0BE01C80121
:100B50000E944C168823C9F0BE01C8010E94631090
:100B6000882399F08A81882339F001158CE51807CC
:100B700051F00F3D1C4579F0CE01DF91CF911F91CF
:100B80000F910C94FD030E94770580E0DF91CF91D7
:100B90001F910F9108950E94CA21F7CF08950C94D8
:100BA000CE0581E008950C94D105CF93C82F0E9403
:100BB000CF058C2FCF910C94D30590E080E0089561
:100BC0000895FC01EE0FFF1FEC55FC4F85919491A9
:100BD0000895CF93DF930E9481130E94FE06EC01DB
:100BE000811520E5920708F042C0811530E4930793
:100BF00008F0BDC0883E910528F5803E910508F0BB
:100C00009DC0883A910588F4853A910508F08FC017
:100C10008130910509F492C0009709F48FC00497C0
:100C200008F08CC0D0E0C0E089C08F3B910508F48B
:100C300089C0805C9109C03CD105A0F30E94E10508
:100C4000EC017CC08115904250F4C11581E0D807B9
:100C500008F074C0C03FD10528F3D0656FC0C1153E
:100C600090E3D90708F079C0CE019F70E7CF8115D6
:100C700025E5920758F5811534E5930708F0A6C0DD
:100C8000811542E5940750F4C11581E5D80708F4B1
:100C900071C0DC2FCC27C16FD06A50C0982F9695B9
:100CA00096959E0123703327C115D34508F07FC068
:100CB000C1E0D0E002C0CC0FDD1F2A95E2F720E2B0
:100CC000929FC0011124C82BD92B6FC0C11589E593
:100CD000D807A8F4C11598E5D90708F07CC0C1155C
:100CE00026E5D20708F09ECF8C2F0E949507C82FCB
:100CF000D0E0DC2FCC27CC27DF71D0621FC0C1151C
:100D00003AE5D30708F46CC0CE01905681159042A5
:100D100008F088CF8D2F8F710E94950790E0982F53
:100D2000882788279F719C012C2BE901E6CFC55AA3
:100D3000D0E0C65ADE4FC881D0E0D064CE01DF914A
:100D4000CF910895C85AD0E0CC0FDD1FC45DDE4FAF
:100D50000990D881C02DD464F1CFCE019927D3FF5B
:100D600003C0EC01D86CEACFEC01D06CE7CFDF70A8
:100D7000D06AE4CFCE01E4E096958795EA95E1F755
:100D800083702C2F26952695237090E2299F900141
:100D90001124382B8C2F8370C1E0D0E002C0CC0F1F
:100DA000DD1F8A95E2F7C22BD32BDC68C7CFC1E0E9
:100DB000D0E002C0CC0FDD1F2A95E2F730E2939F0E
:100DC000C0011124C82BD92BDA68B8CFD82FCC2773
:100DD000C46FD06AB3CFDC2FCC27C06FD06AAECF40
:100DE0008C2F8F700E94950734E0D695C7953A9561
:100DF000E1F7CF709C2FEC01D069A0CF823891052C
:100E0000B1F1B0F48133910509F475C048F4893229
:100E1000910509F469C08A32910509F473C00895F7
:100E20008533910509F459C08933910501F108957D
:100E3000833E9105A9F138F4803E9105F9F0823E98
:100E4000910549F10895863E9105A9F1873E9105E6
:100E5000C9F1843E910519F52091590321FF1FC066
:100E60008091580384FD14C087EE90E0089520918E
:100E700058032370A1F080EE90E00895209158036C
:100E800020FD47C03091590330FF09C024FF44C002
:100E900090E080E004C02091580322FDF7CF089530
:100EA0002091580322FD3BC03091590330FDE3CF20
:100EB00024FFF5CFEDCF2091580323FFF0CF24FD81
:100EC000E7CFD2CF2091580323FD2CC03091590396
:100ED00031FFEECF84EE90E008952091580325FF76
:100EE000DECF89E290E008952091580325FFD7CF07
:100EF00085E390E008952091580326FFD0CF8AE241
:100F000090E008952091580326FFC9CF81E390E037
:100F1000089589E390E0089583EE90E0089582EECD
:100F200090E0089586EE90E008959091580392FF26
:100F300006C0282F28712830F9F4877F846093FF3A
:100F400006C0282F28712831F1F4877E8461209112
:100F5000590320FF06C0382F38713830D9F4877F05
:100F6000816021FF06C0282F28712831D1F4877EA7
:100F7000816194FD877E0895282F24712430F9F62D
:100F80008B7F8860DCCF282F2471243101F78B7E82
:100F90008861DDCF382F3171313019F78E7F88604D
:100FA000E0CF282F2171213121F78E7E8861E1CF9A
:100FB00008950C94D80708950C94DB07E82FF0E00F
:100FC000EE0FFF1FE55EFC4F80819181089508952B
:100FD00080EA8A95F1F70895F894E82FE295EF708A
:100FE000F0E031A1282F2F7081E090E001C0880F40
:100FF0002A95EAF7982F9095932391A392A1892B94
:1010000082A3789408950F931F93CF93DF93CDE538
:10101000D1E00CE611E089910E94EC070C171D0746
:10102000D1F780E30E94EC0781E30E94EC0782E3A2
:101030000E94EC0783E30E94EC0787E30E94EC0721
:10104000109212031092110310921C0310921B03B2
:10105000109214031092130310921E0310921D039A
:1010600010921603109215031092200310921F0382
:10107000109218031092170310922203109221036A
:1010800010921A0310921903109224031092230352
:1010900085E00E94E708DF91CF911F910F910C949A
:1010A0006A056F927F929F92AF92BF92CF92DF922A
:1010B000EF92FF920F931F93CF93DF939DE5E92E5D
:1010C00091E0F92E10E000E0C0E0CC24C394D12CD4
:1010D0003BE1A32E33E0B32ED7018D917D01F8942F
:1010E000E82FE295EF70F0E021A18F70A60102C019
:1010F000440F551F8A95E2F7CA01922F982B91A3AE
:1011000092A18095892382A378940E94E807A60182
:10111000002E02C0440F551F0A94E2F7BA016095F1
:101120007095E1E1F3E08CE6682E81E0782ED0E066
:1011300021913191D3019D903D01892D82958F7030
:1011400090E0DC0190968C9190E0B92DBF7002C0C8
:1011500095958795BA95E2F780FD35C0C901842B36
:10116000952B2817390739F09F0122503109D901F1
:101170008D939C93D1E0AE16BF06D1F6F70131975F
:1011800080810E94EC07CD2B0F5F1F4F0F301105A0
:1011900009F0A2CF2C2F45E06BE173E081E193E0F1
:1011A0000E94E8080E9474058C2FDF91CF911F9157
:1011B0000F91FF90EF90DF90CF90BF90AF909F90F6
:1011C0007F906F900895C90186239723CACF089511
:1011D000FF920F931F93CF93DF93F82E092F162FB3
:1011E000D72FC42F222349F081E08093DE010E9493
:1011F0002C239093DD018093DC018091DE01882314
:10120000A1F08091DC019091DD010E9444230697BA
:1012100060F0EF2DF02FA12FBD2F90E080E0D0E007
:101220008C179D0744F01092DE01DF91CF911F9142
:101230000F91FF900895219131912D933D93019647
:10124000EFCFEF92FF920F931F93CF93DF93EB01BA
:10125000E82FD11110C0442321F0F0E0E254FB4FFD
:10126000E4916E2F7E2F8E2FDF91CF911F910F91E2
:10127000FF90EF9008950D2F10E0282F30E04423C9
:1012800029F022543B4FF901249130E0F6E0CF9F42
:10129000C0011124EFEFF0E0BF010E94FD2DAB0172
:1012A0008C2F90E0880F991FA5E5A49FB001A59F02
:1012B000700D1124861B970B982F990F980FBF0163
:1012C000601B710B629FD001639FB00D729FB00DC8
:1012D00011248B2F9D9FB0011124672F7727EF01D9
:1012E000C61BD70BBE01629FE001639FD00D729FAA
:1012F000D00D11247F01E91AF108E09EB001E19EB2
:10130000700DF09E700D1124672F7727E61BF70BE9
:10131000E29F8001E39F100DF29F100D1124E12F39
:10132000722F4230510599F048F44115510569F08A
:101330004130510581F0EB2F8D2F07C0443051050E
:1013400069F080F046305105B1F76E2F8DCFE22F56
:101350007B2F812FFACFE22F7D2FF7CFEB2F822F1C
:10136000712FF3CF7B2F822FED2FEFCF41E00C9425
:10137000210908950C94B609CF93DF93762FE901E4
:10138000682F842F0E94BA09798368838A83DF914A
:10139000CF91089580912503982F9E7F29F4817025
:1013A00082608093250308958635E8F38170846513
:1013B000F8CF88E090E00C94F62ECF92DF92EF9277
:1013C000FF926B017C010E94CA09B701A60188E067
:1013D00090E0FF90EF90DF90CF900C94142F6091ED
:1013E00025037091260380912703909128030C9484
:1013F000DD09E5E2F3E083E0808311828FEF8283F1
:101400008383148260817181828193810C94DD09D0
:101410008091250380FF02C08695089580E008959D
:1014200090912903933018F49F5F909329038823A8
:1014300051F06091250370912603809127039091CC
:1014400028030C94DD09089581E00C94100A909112
:101450002903992319F0915090932903882351F07F
:1014600060912503709126038091270390912803B2
:101470000C94DD09089581E00C94270A80912903DA
:10148000089580932903662351F06091250370919C
:10149000260380912703909128030C94DD09089579
:1014A00060E00C94410A80912603089580912703FF
:1014B000089580912803089570E00C94D3106091F2
:1014C00008018091250380FF0AC08091070123E075
:1014D000829FC0011124865D9C4F0C945C0A809110
:1014E000090190910A0123E0829FF0011124E65D39
:1014F000FC4F891750F71182108212828F5F33964A
:10150000F8CF9091250390FF14C09091090120918C
:101510000A0133E0939FF0011124E65DFC4F92171E
:1015200010F00C945F0A8183608342839F5F33963F
:10153000F6CF0895CF93DF9300D00F92CDB7DEB7EB
:101540009091250390FF0AC09E012F5F3F4F0E949C
:10155000BC094B8169818A810E94810A0F900F909A
:101560000F90DF91CF910895CF93DF93EC01EC8141
:10157000F0E0E754FC4F4491E5E2F3E062818181C1
:101580000E949A0A8C818F5F8C83DF91CF9108959E
:10159000CF93DF93EC01E5E2F3E0438162818C813C
:1015A0000E949A0A8C818F5F8C83DF91CF9108957E
:1015B0000F931F93CF93DF9300D00F92CDB7DEB779
:1015C0008C018091DF0181110AC09E012F5F3F4F86
:1015D0004FEF6FEF0E94BC098A818093DF01F80111
:1015E0006481613069F08091DF0140E0662361F041
:1015F00040E0623011F44091DF0180E060E004C01F
:101600006091DF0140E080E00E94810AF80184815E
:1016100090E0019663E070E00E94112E84830F90A9
:101620000F900F90DF91CF911F910F910895AF927E
:10163000BF92CF92DF92EF92FF920F931F93CF93BF
:10164000DF9300D00F92CDB7DEB7182FF62E042F00
:10165000E22E9091250390FF29C0E92FE695AE2F49
:10166000B0E0AF58BE4F8C9180932F029E7F923096
:1016700059F59E012F5F3F4F812F0E94BC094B817E
:1016800069818A810E94810A10932603F0922703C0
:1016900000932803EE2051F06091250370912603FA
:1016A00080912703909128030E94DD090F900F90ED
:1016B0000F90DF91CF911F910F91FF90EF90DF90EE
:1016C000CF90BF90AF900895823019F40091280315
:1016D000DBCF863019F410912603D6CF8930D9F3A9
:1016E000893191F6E9518E2F8170D82EE695F0E080
:1016F000E754FB4FA590B490C12CBB2460910B0123
:10170000C61618F00E945F0ABFCF2C2D30E0A29EB3
:10171000C001A39E900DB29E900D112470E00E9416
:10172000FD2D812FD11013C0860F40910901420F6A
:10173000532F511D9A01220F331F240F351F265D91
:101740003C4F402F6F2D0E94BC09C394D7CF861BFE
:10175000ECCFE5E2F3E09181282F4381628188E0BC
:10176000890F0C94170B81E00C94A90BE5E2F3E0D0
:101770009181282F4381628188EF890F0C94170B88
:1017800081E00C94B60BE5E2F3E0628128E0620FA1
:1017900008F46FEF282F438181810C94170B81E0AF
:1017A0000C94C30BE5E2F3E0628128E0621B08F4CD
:1017B00060E0282F438181810C94170B81E00C9409
:1017C000D20BE5E2F3E0438128E0420F08F44FEF4B
:1017D000282F628181810C94170B81E00C94E10B1E
:1017E000E5E2F3E0438128E0421B08F440E0282FC3
:1017F000628181810C94170B81E00C94F00B20E046
:101800000C94170BEF92FF921F93CF93DF93EC0191
:1018100010E0EE24EA94F12C60910B01161770F0A1
:101820000E945F0A9A818C8190FF27C08F5F8C8312
:10183000DF91CF911F91FF90EF90089520910901C2
:10184000422F410F5527551FCA019A01220F331FFE
:10185000280F391F265D3C4F70E0C7010E94112EF2
:10186000962F8C814091280360912703199F800D4A
:1018700011240E94BC091F5FCFCF8150D8CFAF92F7
:10188000BF92CF92DF92EF92FF920F931F93CF936D
:10189000DF93FC0182810FEF80FF01E010E04EE05A
:1018A000A42E80910B011817C8F00E945F0A809146
:1018B000E101013009F055C0811102C080910B0196
:1018C00081508093E101DF91CF911F910F91FF90A3
:1018D000EF90DF90CF90BF90AF900895C091090135
:1018E000C12ED12CCC0DDD2DD11DCE01880F991F1D
:1018F000C80FD91FC65DDC4F198218821A8234E0E6
:10190000E32EF12CB12C8091E1018B0D8F301CF175
:101910006A2D0E94EF2D892F082E000C990BC816F6
:10192000D90691F4809128038E9DA0018F9D500DC2
:10193000112455954795559547959E01609127032C
:10194000809126030E94BC09B00EF1E0EF1AF10865
:10195000D1F61F5FA6CF87FFDFCF90910B01890FD4
:10196000DBCF90E0019660910B0170E00E94112E98
:10197000A8CF0F931F93CF93DF938091090190918C
:101980000A0123E0829FF0011124E65DFC4F8917D4
:1019900040F1C0E0D3E060910B01C61740F10E9416
:1019A0005F0A209105018091E001820F8093E001A0
:1019B00090910601920F90930601191654F4082E87
:1019C000000C990B40910B014150550B8417950762
:1019D0001CF0219520930501DF91CF911F910F916C
:1019E00008951182108212828F5F3396D0CF0C2F10
:1019F00010E070E0C8010E94112E20910901820FB1
:101A0000482F50E02091E001022E000C330B02170A
:101A10001307BCF020910601022E000C330B201797
:101A200031077CF08D9F90011124265D3C4F409141
:101A3000280360912703809126030E94BC09CF5F91
:101A4000AACFFA01EE0FFF1FE40FF51FE65DFC4F72
:101A5000118210821282F3CF8F929F92AF92BF9227
:101A6000CF92DF92EF92FF920F931F93CF93DF936A
:101A7000EC014C81042F10E09801D8010E945C2EEB
:101A80009B01AC010E94722E4B015C01E0E2F0E090
:101A9000E01BF10BA5E5B0E0AC019B010E94722EAA
:101AA0006B017C019F01DF010E94542E9B01AC0160
:101AB0000E947D2E9B01AC01280D391D4A1D5B1D26
:101AC000C701B6010E94252EF22E822F90E039E246
:101AD0003F1560F143E0249F90011124359527952F
:101AE000122F109500E085E5E82EEF1880910B018C
:101AF000081758F10E945F0A9C8181E0992319F030
:101B0000903219F48FEF8093040180910401890FC2
:101B10008C83DF91CF911F910F91FF90EF90DF9019
:101B2000CF90BF90AF909F908F90089525E530E0C3
:101B3000B901681B790B9B01220F331F260F371F3A
:101B400037FFCCCF2F5F3F4FC9CF8E2D01FD8F2D9B
:101B500020910901622F600F7727771F9B01220FC9
:101B6000331F260F371F265D3C4F412F60912703FF
:101B70000E94BC090F5FBACF0F931F93CF93DF93DF
:101B8000EC0110E000E090910B019017110609F0B4
:101B90006CF40E945F0A8C8190E001968170992715
:101BA0008C83DF91CF911F910F91089520910901AE
:101BB000A801420F511D9A01220F331F240F351F18
:101BC000265D3C4F4C8160912703809126039695BA
:101BD0009017110651F04CF0442349F0409128032E
:101BE0000E94BC090F5F1F4FCECF4423B9F340E0E2
:101BF000F7CF8F929F92AF92BF92CF92DF92EF92E8
:101C0000FF920F931F93CF93DF93FC01B2809480D8
:101C100081E0848300E015E05BE4A52E88248394B2
:101C2000EE24EA94F12C7BE4C72ED12C80910B0199
:101C3000081770F0DF91CF911F910F91FF90EF90F7
:101C4000DF90CF90BF90AF909F908F900C945F0AE1
:101C5000C02FD0E01C9FF0011D9FF00D1124EE510C
:101C6000FE4F91101CC01382128220910901CE01F7
:101C7000820F911D9C01220F331F280F391F265DF3
:101C80003C4F1C9FF0011D9FF00D1124EE51FE4FA3
:101C90004281618180810E94BC090F5FC7CF23818F
:101CA000222379F12150238334818A2D821B311123
:101CB00001C0822F1C9FF0011D9FF00D1124EE51D9
:101CC000FE4F90912803899FC0011124B6010E9404
:101CD000FD2D6283211104C0332311F01482A382ED
:101CE00022E02B1510F21C9FF0011D9FF00D112416
:101CF000EE51FE4F809126038083809127038183DC
:101D0000B4CF0E94D12E823091400CF0AECF82E051
:101D10008B1530F50E94D12EB7010E94112E1C9F09
:101D2000F0011D9FF00D1124EE51FE4F808322E043
:101D30002B15C8F40E94D12E209127032695622FDF
:101D400070E00E94112E280F1C9FF0011D9FF00DC6
:101D50001124EE51FE4F21831282A382848285CF0B
:101D600080912603DCCF20912703EECFE5E2F3E05C
:101D700080818E7F808360817181828193810E94C6
:101D8000DD09109230022FEF80E792E02150804071
:101D90009040E1F700C000000C945F0AE5E2F3E038
:101DA00080818E7F8083109230022FEF80E792E057
:101DB000215080409040E1F700C000000C945F0A81
:101DC00060912503669570E04BE050E08CE091E077
:101DD0000E94E12E892B19F481E0809330020E9449
:101DE0002C23909329028093280208959091250333
:101DF00090FF35C09170811128C0926090932503A7
:101E0000662351F06091250370912603809127038A
:101E1000909128030E94DD0960912503669570E08A
:101E20004BE050E08CE091E00E94E12E892BA1F084
:101E30001092300281E080932B0240912803609140
:101E40002703809126030C94FF0B8B3210F09465CE
:101E5000D5CF880F982BD2CF0E94E00EEBCF0895FC
:101E6000682F90912503969581E0890F8B3208F0B9
:101E700081E00C94F60E81E00C94300F682F909165
:101E8000250396958FEF890F09F48AE20C94F60EDC
:101E900081E00C943E0F61E00C94F60EE5E2F3E075
:101EA00080818160808386950C944B0F80912503FF
:101EB00080FD0C94B60E0C944E0F60E00C94F60E60
:101EC00080912E0281112EC00E942621811104C012
:101ED0000E94CA210E94F9090E94D9096093250332
:101EE0007093260380932703909328036E7F61F4F9
:101EF0000E94F9090E94D909609325037093260373
:101F000080932703909328030E94CA0910923002FD
:101F10008091250380FF03C086950E945D0F81E0BC
:101F200080932E020895E5E2F3E080818160808352
:101F300086950C945D0F1092300208950F931F93B5
:101F4000CF93DF9380913002882309F49DC0809164
:101F50002F02E0912503E695E81BE0932A028230E8
:101F6000C9F5F0E0EB54FC4FE491CE2FD0E004EB48
:101F70001AE080912B02882389F010922B020E9494
:101F80002C239E0120953095820F931F9093290258
:101F90008093280210922D0210922C028091280228
:101FA000909129020E9444238C179D0708F46CC06D
:101FB000E0912802F0912902CE0FDF1FD093290271
:101FC000C093280288E292E0F801DF91CF911F913F
:101FD0000F910994863049F4F0E0EE54FC4FE491FF
:101FE000CE2FD0E008EC1AE0C4CF893051F4E6954A
:101FF000F0E0E155FC4FE491CE2FD0E002E01CE090
:10200000B8CF8F3051F4E695F0E0E455FC4FE49101
:10201000CE2FD0E00FE31CE0ACCF853149F4F0E0E7
:10202000E755FC4FE491CE2FD0E009EB1CE0A1CFA7
:10203000C8E2D0E00CE21DE0883109F49ACF833287
:1020400039F4E7EAF3E0C591D49108ED1AE091CFB5
:10205000C4EFD1E00CEB1DE0843209F48ACFC0ED6F
:10206000D7E009EB19E0853209F083CF8E2F63E0CA
:102070000E94E32DE92FF0E0EC55FC4FE491CE2FC8
:10208000D0E009EF1DE075CFDF91CF911F910F9147
:102090000895FA01811101C0FB010994CF93DF93E8
:1020A000C82FD62F0E94080A8C1740F00E94080AF9
:1020B0008D1720F4DF91CF910C943B0F8C2FDF9183
:1020C000CF910C944B0F0F931F93CF938C01FB0177
:1020D000C281CC2309F465C00E9471208272F8018C
:1020E000E35CFC45E431F10538F4E95AF04D0C9419
:1020F000472E0E94560FC0E08C2FCF911F910F9159
:10210000089548E45FE06BE37FE00E944910F3CF5D
:102110004BE35FE068E47FE0F8CF40EC5BE063EB2B
:102120007BE0F3CF43EB5BE060EC7BE0EECF4EED8A
:102130005BE06FEC7BE0E9CF4FEC5BE06EED7BE0CA
:10214000E4CF4CEF5BE06DEE7BE0DFCF4DEE5BE08C
:102150006CEF7BE0DACF4BE35AE064E27AE0D5CF74
:1021600044E25AE06BE37AE0D0CF81E00E944B0F6B
:10217000C2CF65E082E00E944E10BDCF68E086E0ED
:10218000FACF6EE089E0F7CF64E18FE0F4CF67E14A
:1021900085E1F1CF88E1EACF62E289E1ECCF83E229
:1021A000E5CFC1E0A9CF6A9A4EB14B7F5EB15460D2
:1021B000EFB7F8949B01220F331F260F371F280F0C
:1021C000391F2817390741F4EFBF8FE594E00197D5
:1021D000F1F700C000000895DC016D91CD0178E0B9
:1021E0005EB9000000C067FF4EB9660F000000C076
:1021F00000C000C04EB900C07A9591F7E2CF82E2EC
:1022000090E00E94EE2E813289F483E290E00E94F9
:10221000EE2E823059F484E290E00E94EE2E91E09E
:10222000863009F090E0892F8170089580E0FCCF1E
:10223000CF93C82F6FEF811161E282E290E00E949C
:10224000022F6FEFC11162E083E290E00E94022F43
:102250006FEFC11166E084E290E0CF910C94022F01
:1022600080E00E9418110C942021089585E290E0EE
:102270000E94EE2E682F70E090E080E0089585E2E5
:1022800090E00C94022F0E9435110E94FF108111E2
:102290000CC060E070E0CB010E943F110E94F91277
:1022A0000E94E51381E00C9418110895CF93FB016F
:1022B000C281CC2309F19C0122513F4520313105D7
:1022C00020F582510E94F513C0E08C2FCF91089524
:1022D00081E00E94EC1E43E062E081E00E9458052C
:1022E000F3CF81E00E940D1F43E062E081E00E9495
:1022F0005805EBCF82E0F6CF8031FFE59F0789F3E9
:1023000081319F45B9F3C1E0E0CF8031EFE59E0711
:10231000F9F281319F45C9F682E0DBCF2FEFFC0156
:1023200020830895CF93DF93EC0188818138A9F051
:1023300028F4803871F0DF91CF910895823881F0D0
:102340008338C9F70E94530A89830E94560A8A83F8
:10235000F2CF0E94590A8983EECF0E94080AFBCF70
:102360000E943E0AF8CFCF93DF93EC018881813839
:10237000E1F028F4803869F0DF91CF910895823838
:1023800011F18338C9F70E94590A482F6A8189815F
:1023900008C0D9810E94560AC82F0E94530A4D2FA7
:1023A0006C2FDF91CF910C94FF0B89810E945D0F00
:1023B0008981811104C0DF91CF910C94CE0EDF9101
:1023C000CF910C94930F8981DF91CF910C94500A97
:1023D000EF92FF920F931F93CF93DF93EC01062FA1
:1023E000DC01ED91CD01E150E33108F0BFC0F0E038
:1023F000E559F04D0C94472E198289E08A83602FAD
:10240000CE01DF91CF911F910F91FF90EF900C942F
:1024100017278981823069F0833071F08130D9F4D7
:102420000E9438230E944D2E6A837B838C839D8378
:10243000E6CF0E943611F6CF7E0110E0812F0E9478
:10244000DE07F701928383831F5FF2E0EF0EF11C3A
:102450001530A1F7D4CF602FCE010E948E11CFCFBF
:1024600089818230C1F76A817B818C819D810E9444
:102470004D2E0E943F11C3CF4B816A8189810E94FA
:10248000CB129827892798279D838C83B8CF2C81DE
:102490003D813227232732274B816A8189810E941F
:1024A000E412ADCF0E94F912AACF0E94B311A7CFB8
:1024B0000E949211A4CF0E94EF09A1CF0E948E1317
:1024C00089839DCF0E9490139827892798279A8304
:1024D000898395CF6B8170E089819A81AE014C5FD1
:1024E0005F4F9827892798270E94931388CF6B8185
:1024F00070E089819A81AE014C5F5F4F98278927F0
:1025000098270E94BA137BCF0E94E51378CF0E94D0
:10251000B912D6CF6B8170E089819A81AE014C5F90
:102520005F4F9827892798270E94311368CF6B81C6
:1025300070E089819A81AE014C5F5F4F98278927AF
:1025400098270E9457135BCF0E94301158CFCE01BD
:102550000E9417272FEF81EE94E021508040904099
:10256000E1F700C000000E94772349CF8FEF8883F6
:1025700046CF84E0089550E0440F551F9EE1699FC7
:10258000400D511D112496E9899F400D511D1124C4
:10259000CA01869608950F931F93CF93DF930E94ED
:1025A000BB128C010E94EE2EC82FD0E0DC2FCC276E
:1025B000C80101960E94EE2E9E01282BC901DF91D1
:1025C000CF911F910F9108950F931F93CF93DF9396
:1025D000122F032F0E94BB12EC01602F0E94022FCA
:1025E000612FCE010196DF91CF911F910F910C9435
:1025F000022FAF92BF92CF92DF92EF92FF921F9382
:10260000CF93DF938CEAC82E80E0D82ED0E07601FD
:10261000C0E014C0F50125913491412F6C2F8D2F0E
:102620000E94E41282E0A80EB11C1F5F1F3091F7D8
:102630008EE1E80EF11CCF5FC53019F0570110E0B4
:10264000E9CFDF5F86E9C80ED11CD43001F7DF91F6
:10265000CF911F91FF90EF90DF90CF90BF90AF9000
:102660000895EF92FF920F931F93CF93DF93EC01A6
:102670008A017C01E60EF71ECE018696CE15DF0597
:1026800039F4DF91CF911F910F91FF90EF90089552
:10269000C83522E0D20740F40E94EE2EF801808374
:1026A0000F5F1F4F2196E8CFF8011082F9CFCF922C
:1026B000DF92EF92FF920F931F93CF93DF937C01F2
:1026C0006A018C01060F171FEC01CE018696C01718
:1026D000D10749F4DF91CF911F910F91FF90EF90B7
:1026E000DF90CF900895C83522E0D20740F4FE0174
:1026F000EE19FF09EC0DFD1D60810E94022F21964D
:10270000E4CF462F843038F4753028F46F3018F455
:10271000672F0C94CB1290E080E0089580E108953B
:1027200082E891E00895EF92FF920F931F93CF9369
:10273000DF93EC018A017C01E60EF71ECE01825880
:102740009D4FCE15DF0539F4DF91CF911F910F9189
:10275000FF90EF900895C23821E0D20740F40E9424
:10276000EE2EF80180830F5F1F4F2196E7CFF8010F
:102770001082F9CFCF92DF92EF92FF920F931F93C7
:10278000CF93DF937C016A018C01060F171FEC01C8
:10279000CE0182589D4FC017D10749F4DF91CF91E8
:1027A0001F910F91FF90EF90DF90CF900895C23866
:1027B00021E0D20740F4FE01EE19FF09EC0DFD1DEA
:1027C00060810E94022F2196E3CFCF93DF93CEE763
:1027D000D2E060E0CE010E94022F2196C11584E074
:1027E000D807B9F7DF91CF910895DF92EF92FF926A
:1027F0000F931F93CF93DF9300D000D0CDB7DEB7F8
:10280000F82E8FE08F1540F08FEF93E00E94EE2EB0
:102810000EE712E08823C1F00F900F900F900F90F9
:10282000DF91CF911F910F91FF90EF90DF9008956E
:10283000011584E0180781F3C8010E94EE2E811172
:1028400001C0FA940F5F1F4FF110F2CF19821A8264
:102850001B821C82DD24D39478018FEFE81AF80ADA
:10286000C8010E94EE2E89831A828823A9F29FEF65
:10287000980F933078F48A83D9820E5F1F4FC70177
:102880000E94EE2E8B83882339F2CE0101960E949E
:102890000105E2CF8701F9CFAF92BF92CF92DF92CD
:1028A000EF92FF920F931F93CF93DF937C015B0115
:1028B000C42FD22FFC0182818823F9F04093330288
:1028C0000E942C23909332028093310280E28C0F7D
:1028D000883008F061C0C77081E001C0880FCA95D8
:1028E000EAF7DF91CF911F910F91FF90EF90DF906A
:1028F000CF90BF90AF900C947318109133021413C3
:1029000040C080913102909132020E9444236C01B8
:10291000B701C5010E94651DC816D90690F5C0E231
:10292000CD0F1D17B9F080E2810F883040F4177089
:1029300081E001C0880F1A95EAF70E947A18C83022
:1029400048F481E09D2F977001C0880F9A95EAF7AF
:102950000E947318802F0E946018C830E8F4D77066
:1029600081E001C0880FDA95EAF7DF91CF911F91DE
:102970000F91FF90EF90DF90CF90BF90AF900C94AD
:102980007A1880E28C0F883038F4C77081E001C07B
:10299000880FCA95EAF7E9CFDF91CF911F910F9188
:1029A000FF90EF90DF90CF90BF90AF9008950F937E
:1029B0009C01CB01243F4CE5340759F1A8F4293D93
:1029C000FCE53F0701F12A3D4CE53407D1F1283DF4
:1029D0003C4591F406E221EE41EE68ED7CE50E9473
:1029E0004C1480E00F910895263FFCE53F07E9F085
:1029F000B0F0273F3C45F9F0FC018281882339F192
:102A000010923302EFCF07E225EE45EE69ED7CE54B
:102A1000E6CF06E221EE40EE64EF7CE5E0CF07E290
:102A200025EE44EE65EF7CE5DACF06E221EE42EEDC
:102A300066EF7CE5D4CF07E225EE46EE67EF7CE556
:102A4000CECF08E221E045EE6AED7CE5C8CF81E01B
:102A5000C9CFCF93DF93EC01FB018281882309F476
:102A600019C1C230FCE5DF07C0F1C6319CE5D907CA
:102A700030F09E012B5F3C452930310570F50E94F6
:102A800039219093590380935803C031ECE5DE0758
:102A900009F4CFC008F05BC0C8308CE5D80709F452
:102AA000B6C088F5C430ECE5DE0709F4A8C0C0F470
:102AB000C2308CE5D80709F49CC08091580382602D
:102AC000C330DC4509F498C08091580390915903B4
:102AD0000E9447210E94EF1A80E0DF91CF91089574
:102AE000809158038061C630ECE5DE0709F484C0AC
:102AF000809158038860C730DC4508F47DC0809120
:102B00005803806279C0CC308CE5D80709F489C0BD
:102B100070F4809158038C60CA30ECE5DE0709F44C
:102B20006BC008F478C0809158038E7F65C0CE30AA
:102B30008CE5D80709F479C0809158038B7FCF309A
:102B4000DC4508F459C0809158038F7E55C0CC3FB6
:102B5000ECE5DE0709F457C030F5C3318CE5D80742
:102B600009F46FC078F4C131ECE5DE0709F465C003
:102B7000C231DC4509F0A8CF0E94EF1A80915803BA
:102B80008F773AC0C5318CE5D80709F462C008F4E4
:102B900076C0809159038160CB3FDC4509F094CF2A
:102BA0008093590391CFC115FDE5DF0709F44DC0AE
:102BB00088F4809159038D7FCE3F9CE5D90781F33E
:102BC000809159038E7FCF3FDC4550F380915903AC
:102BD0008360E6CFC230FDE5DF0709F459C008F491
:102BE00044C080E0C330DD4509F06ECF0E94CC21A7
:102BF0006BCF8091580381608093580365CF80919B
:102C000058038460F9CF809159038260C9CF8091C5
:102C100058038064F1CF0E94EF1A809158038068B6
:102C2000EBCF809158038D7FE7CF80915803877F4A
:102C3000E3CF809158038F7DDFCF809158038F7B46
:102C4000DBCF80915803837FD7CF809159038C7F4E
:102C5000A7CF8091580382FB992790F921E0922712
:102C600090FB82F990FB83F9C7CF80915903982F8D
:102C7000909591708E7F892B90FB81F991CF0E9466
:102C8000EF1A90915803892F97FB87F98058B4CF9A
:102C900081E0ACCF81E021CFCF93DF93EB01863190
:102CA0009C4511F50E9471209A81992399F08A7AA6
:102CB00091E009F490E090933402811109C089E217
:102CC0000E944C200E94BD2080E0DF91CF910895AA
:102CD00085E3F6CF80913402811104C089E20E941D
:102CE0005320F0CF85E3FBCF81E0EFCF90933A0202
:102CF000809339020895E0913902F0913A023097B9
:102D000021F00190F081E02D099480E00895E09198
:102D10003902F0913A02309799F020912B01222349
:102D200059F02091580327FF07C0DC012C91119620
:102D30002C93119725E02C930280F381E02D0994C8
:102D40000895E0913902F0913A02309739F022E08B
:102D5000DC012C930480F581E02D099408952091E5
:102D60003702309138022817390771F090933802F2
:102D700080933702E0913902F0913A02309721F0C6
:102D80000680F781E02D0994089520913502309155
:102D900036022817390771F0909336028093350276
:102DA000E0913902F0913A02309721F00084F185E8
:102DB000E02D0994089585B7806885BF85B7806840
:102DC00085BF0895089508950C94E21608950C9413
:102DD000E6160E94DB160E94E3160C94E41681E0CE
:102DE00008950C94EF16089508950E9423230E94DD
:102DF00003080E9443110E94B4230E94600F0C94A8
:102E0000E7169F92AF92BF92CF92DF92EF92FF921E
:102E10000F931F93CF93DF93CDB7DEB72A970FB6EB
:102E2000F894DEBF0FBECDBF0E94F3160E94F416C9
:102E30000E9451080E94F116882309F472C05CE3D5
:102E4000A52E52E0B52E10E000E0902E802F0E94BB
:102E5000DE076C01F501E190F1905F01E816F906DB
:102E600009F459C08091DE0281FD0E94E7079701B5
:102E70002C253D2580E0EE24E394F12CA9014E2180
:102E80005F21452B09F441C08E839F82CE20DF2035
:102E900081E0CD2809F480E088870E942C2381609E
:102EA000782F9A8789874E815F8168858A850E94FD
:102EB000B417000F111FF801E45CFD4F8081918170
:102EC000E826F926F182E0820E949E0F0E945F258B
:102ED0000E947B1690913B028917A1F10E947B16FC
:102EE00080933B022A960FB6F894DEBF0FBECDBF8B
:102EF000DF91CF911F910F91FF90EF90DF90CF90D6
:102F0000BF90AF909F900C94D5058F5FEE0CFF1C87
:102F10008F3009F0B3CF0F5F1F4F0530110509F057
:102F200094CF8FEF89838A831B820E942C23816038
:102F3000782F9D838C8349815A816B818D810E947A
:102F4000B417C2CF2A960FB6F894DEBF0FBECDBF1E
:102F5000DF91CF911F910F91FF90EF90DF90CF9075
:102F6000BF90AF909F900895CF93DF93CDB7DEB71A
:102F70002B970FB6F894DEBF0FBECDBF4F83588797
:102F800069877A878B871E821D8285E0FE013796CE
:102F9000DE01119601900D928A95E1F749815A81DF
:102FA0006B817C818D819E812B960FB6F894DEBF5C
:102FB0000FBECDBFDF91CF910C94681DFC018081C5
:102FC00091810C941E20CF93C82F882309F447C009
:102FD0008CEF8C0F813AA0F46C2F809117019091A7
:102FE00018010E94E521882329F08C2F0E9453208C
:102FF0000E94BD208C2F0E944C20CF910C94BD20AC
:1030000080E28C0F883048F4C77081E001C0880FDF
:10301000CA95EAF70E947420F0CFEBE5EC0FE3309D
:1030200040F4F0E0E653FE4F808190E0CF910C94A5
:10303000AF16E8E5EC0FE73150F4F0E0EE0FFF1FBC
:10304000E456FE4F80819181CF910C94C516C03F0C
:1030500030F08C2F0E945924CF910C944425CF91AD
:103060000895882361F19CEF980F913A20F40E9413
:1030700053200C94BD2090E2980F983050F4877044
:1030800091E001C0990F8A95EAF7892F0E947A2072
:10309000F0CF9BE5980F933020F490E080E00C9403
:1030A000AF1698E5980F973120F490E080E00C94EB
:1030B000C516803F20F00E94C1240C944425089539
:1030C000CF93C82F0E94E317C93349F42FEF87EE3F
:1030D00093E0215080409040E1F700C000008C2F29
:1030E000CF910C943118882321F00E9474200C9405
:1030F000BD200895882321F00E947A200C94BD20E1
:103100000895BF92CF92DF92EF92FF920F931F9399
:10311000CF93DF936C01D62FC72FFC010581029559
:103120000F70128111110E9491200E946A20E82ED6
:10313000882391F01123D1F08C2F807F803421F0EF
:1031400080E28D0F883090F082E00E9408210E947A
:103150006A2091E0E82EE926BC2EB2949FE0B922C5
:10316000EB2DF0E0E258F04D0C94472EE12CF4CF1B
:103170000C2F0F70C07F11F00295007F1123A9F072
:10318000002359F080E28D0F883010F0D11109C072
:10319000802F0E9474200E94BD208D2F0E94E31773
:1031A00014C0802F0E948420F6CF8D2F0E943118EA
:1031B000002359F080E28D0F883010F0D1112CC01F
:1031C000802F0E947A200E94BD202B2D2850330B87
:1031D0002430310520F40E947B160E94D505EE2094
:1031E00009F49EC10E94662080FD9AC1F6011282F8
:1031F0000E9460200E94EC1EC6010E94B11A0E942B
:103200006020DF91CF911F910F91FF90EF90DF90A1
:10321000CF90BF900C940D1F802F0E948A20D3CF97
:10322000FC2FFF70FF2EC07FC03219F0F29480EFA8
:10323000F822DD2369F0D13049F1112391F1002307
:1032400051F1F601858180FFA8CF8F70858323C05F
:10325000112381F0011106C00E94A4208F290E9431
:103260007318B3CF0130C1F70E94A4208F290E94A8
:10327000AA20ABCF011106C00E94B3208F2D0E945F
:103280007A18A3CF013009F4A0CFF6CF112329F08B
:10329000063008F09ACF8F2DE2CF053008F095CF99
:1032A000EDCF002359F3D93349F4FFEF27EE33E094
:1032B000F15020403040E1F700C000008D2F0E9407
:1032C000311883CF8C2F86958695837069F0813075
:1032D00009F07BCF8D2F9C2F9370111102C090E0CD
:1032E00080E00E94C51671CF8D2F9C2F9370111115
:1032F00002C090E080E00E94AF1667CF8D2F1123AF
:1033000029F00E9459240E9444255FCF0E94C124C5
:10331000FACF8C2F837009F041C0111156CF4D2F79
:10332000429546954770440F440F0D2F0F7010E0E3
:1033300030E020E0042E04C0000F111F221F331FB5
:103340000A94D2F760E070E0CB01D4FF0FC06FE0C9
:1033500070E080E090E004C0660F771F881F991F1F
:103360004A95D2F76095709580959095C695C695CB
:10337000C370602B712B822B932BC23049F058F411
:10338000C13019F00E949E1E20CF0E948C1E1DCFBE
:103390000E94B01E1ACF0E948A1E17CF8695112355
:1033A00011F08C2F8170882309F40FCF4D2F429597
:1033B00046954770440F440F0D2F0F7010E030E01A
:1033C00020E0042E04C0000F111F221F331F0A9497
:1033D000D2F760E070E0CB01D4FF0FC06FE070E087
:1033E00080E090E004C0660F771F881F991F4A9500
:1033F000D2F76095709580959095C695C695C370E7
:10340000602B712B822B932BC23049F058F4C130C2
:1034100019F00E94631FD9CE0E94511FD6CE0E9480
:10342000751FD3CE0E94C61ED0CECF70112329F0B7
:103430008C2F0E94EC1E8D2F12CF8D2F0E947A1898
:103440008C2F0E940D1FC1CED23F89F160F4D03F76
:10345000C9F0D13F29F1112309F442C001119DCED9
:103460008C2F8F7121C0D33F39F1D43FA1F71123A5
:1034700069F1CF718C2F0E94EC1E63E08C2F0E94AB
:10348000F320A3CE112341F0053008F09ECE8C2FFF
:103490008F710E94301F99CE063008F096CEF7CF7C
:1034A0008C2F8F71112369F20E94EC1E8ECE8C2F0F
:1034B0008F711123C9F3C5CF112329F08C2F8F7180
:1034C0000E94D71E82CE0E94D21E7FCE81E00E9433
:1034D0000821023008F479CE82E00E94082175CEDE
:1034E000002359F0D93309F0E9CE8FEF97EEE3E0EE
:1034F00081509040E040E1F7DFCE8C2F8F71A1CF5B
:103500004C2F4F706D2FC6010E94DD050E94021ED8
:103510005CCE4C2F4F706D2FC6010E94E00555CE3A
:10352000DF91CF911F910F91FF90EF90DF90CF909F
:10353000BF9008950F931F93CF93DF93EC016881A1
:1035400079818A810E9428208C010E94871F0E9415
:10355000891EB801CE01DF91CF911F910F910C947C
:103560008118CF93DF93EC018B819C81892B29F00B
:103570008881998189238F3F59F4DF91CF910895F4
:10358000CE010E949A1ACE01DF91CF910C94420491
:10359000CE010E9486058111F3CF0E946A20882304
:1035A00061F38A81882349F382E0DF91CF910C9403
:1035B00008210E9491200E94A1200E94BD200E940B
:1035C0006B260E94442590E080E00E94AF1690E0B8
:1035D00080E00C94C5160E945A200C94D91A0E94BF
:1035E00081200C94EB1AE92FE295EF70E250EE3057
:1035F00070F4F0E0E257F04D0C94472E803F19F044
:1036000020F4883E20F481E00895843FE1F380E0D7
:103610000895883EC0F3813FD1F7F5CF93FB88270B
:1036200080F908950E941E200C94F31ACF93DF9323
:1036300000D000D00F92CDB7DEB70F900F900F9053
:103640000F900F90DF91CF910895CF93DF9300D02B
:1036500000D000D0CDB7DEB726960FB6F894DEBF07
:103660000FBECDBFDF91CF9108951F93CF93DF930E
:10367000C091470216E0809148028C1304C0DF918C
:10368000CF911F910895D0E01C9FF0011D9FF00D78
:103690001124E75BFD4F40815181628173818481F8
:1036A00095810E94251B2196C770E5CF4091790234
:1036B00050917A0260917B0270917C0280917D0230
:1036C00090917E020C94251B1F93CF93DF938091E2
:1036D0007E02807FA9F480917B02882389F080910B
:1036E0004702C09148026091790270917A02A091DC
:1036F0007C02B0917D02D62FD72316E0C81304C0F8
:10370000DF91CF911F91089590E0109711F0DF3F66
:1037100019F401968770F2CF189F9001199F300D10
:103720001124F901E75BFD4F41814713F2CF40813E
:103730004613EFCF42814111ECCF438154814A1BA4
:103740005B0B483C510528F780917E028F708061A9
:1037500080937E02F901E25BFD4F80818F70806172
:10376000808389E792E00E94B11ADF91CF911F9187
:103770000C94351BAF92BF92CF92DF92EF92FF92E3
:103780000F931F93CF93DF93CDB7DEB761970FB63B
:10379000F894DEBF0FBECDBF8C0185E0F801DE01DD
:1037A0001D9601900D928A95E1F7F80140815181B3
:1037B000E28089E7C82E82E0D82E60917C02709169
:1037C0007D026115710509F461C190917902209122
:1037D0007A02892F82238F3F09F458C1A380B480D5
:1037E000F0907B02F501E61BF70BFF2009F4FCC00B
:1037F00080917E02382F307FE83CF10508F0B2C09E
:10380000311179C0FE2C251323C0941321C0E1107F
:103810001FC08F70806180937E020E94561BC6017C
:103820000E94B11A80917E02F80185838F2D6196E6
:103830000FB6F894DEBF0FBECDBFDF91CF911F91C1
:103840000F91FF90EF90DF90CF90BF90AF900895D1
:10385000AB2829F0842F85238F3F09F033C180E006
:10386000F82FF170DF2E80FF3CC08091470220913D
:10387000480236E0821315C04D875E878D859E8590
:103880000E941E20292F22952F702230F0F0243024
:1038900018F59F70F1F0F8019581907FD1F4D12C4B
:1038A0001EC090E0389FF001399FF00D1124E75BB6
:1038B000FD4F6181651306C06081641303C062819E
:1038C0006E110FC001968770D5CF9F7011F08823BD
:1038D00031F3805E883018F3C8010E94B11AFD2CC4
:1038E000A5CFEE2009F4A2CF80917E028160809363
:1038F0007E02F12C9BCF251306C0941304C0F8015F
:10390000EE2009F48DC04D875E878D859E850E94CF
:10391000121B882319F1EE2009F180917E0280327A
:1039200070F02091790230917A0238872F831986BE
:10393000BB86AA868C87CE0107960E94B11A86E0C4
:10394000F801A9E7B2E001900D928A95E1F70E9493
:10395000641B0E94561BFF24F39468CFC8010E9489
:10396000B11AF9CF311113C07A2DB98AA88A6E2DF8
:1039700089890E94161B89E792E00E94B11A86E0AD
:10398000F60111928A95E9F70E94561BB2CF2513D2
:103990000FC094130DC0E1100BC0F8018583C8015E
:1039A0000E94B11A86E0F60111928A95E9F73ECF9E
:1039B0004D875E878D859E850E94121B882371F23C
:1039C000EE2061F280917E02803208F4B8CF20911F
:1039D000790230917A023A8329831B82BD82AC82BC
:1039E0008E83CE010196A9CFE83CF10508F041C0D5
:1039F000FE2CEE2009F4B2CF25132AC0941328C060
:103A000080917E0280FD1BC0982F907FC1F0F8014D
:103A10008583903F31F0982F907F905F8F70892B36
:103A20008583C8010E94B11A86E0F801A9E7B2E0D7
:103A300001900D928A95E1F70E94561BF7CE86E021
:103A4000F801A9E7B2E001900D928A95E1F7EECE78
:103A50004D875E878D859E850E94121B81116FCFD9
:103A600080917E02816080937E02C8010E94B11A1B
:103A7000DDCE7A2DB98AA88A6E2D89890E94161BFF
:103A800086E0F60111928A95E9F7D6CFEE2009F487
:103A900065CF4D875E878D859E850E94121BF82E0F
:103AA000882309F45BCF86E0F801A9E7B2E0019032
:103AB0000D928A95E1F789E792E00E94DE170E9455
:103AC000641BBACF81E08E25CBCE88EC90E00895C0
:103AD0001F93CF93DF93CDB7DEB72C970FB6F89433
:103AE000DEBF0FBECDBF4F83588769877A878B872C
:103AF0009C87CE0107960E94BA1B882369F08A85AD
:103B00009B85892B39F04F815885842F85238F3FE2
:103B100009F071C016E05FC086E0FE013796DE0155
:103B2000119601900D928A95E1F78A859B85892BE4
:103B300089F38F81988589238F3F61F32091480213
:103B400030E0C901019687709927409147024817D4
:103B5000190671F40E94EF1A10924802109247025F
:103B600086E0E9E7F2E0DF011D928A95E9F7D2CF1E
:103B700096E0929FD001939FB00D1124A75BBD4F9B
:103B8000FE01319601900D929A95E1F780934802DB
:103B90000E94351BBFCF819FC0011124875B9D4FC1
:103BA0000E94BA1B8823E9F0E09147021E9FF001B2
:103BB0001124E75BFD4F40815181628173818481D3
:103BC00095810E94251B8091470290E001968770A5
:103BD0009927809347028091470290914802891368
:103BE000DACF2C960FB6F894DEBF0FBECDBFDF91B3
:103BF000CF911F91089569857A858B859C850E9458
:103C0000251B88CFEF92FF920F931F93CF93DF93E3
:103C10008C01892B81F0F12CEE24E394E8012196AC
:103C2000F8018491843770F4843008F05FC08130EB
:103C3000B1F08230A1F1DF91CF911F910F91FF90F0
:103C4000EF900895853709F44CC008F43DC09CE717
:103C5000980F903780F78F770E94311849C00E5F18
:103C60001F4FFE01849190E2980F983060F48770A6
:103C7000FE2D01C0FF0F8A95EAF78F2F0E94942036
:103C80000E94BD2002C00E94E3178F2D815030F2A8
:103C9000EFE9FFE03197F1F700C00000F7CF0E5FCA
:103CA0001F4FFE01849190E2980F983050F4877076
:103CB000FE2D01C0FF0F8A95EAF78F2F0E949A20F0
:103CC000DFCF0E943118E1CF0E5F1F4FFE01C4917C
:103CD000C150D8F28FE99FE00197F1F700C00000D2
:103CE000F7CF0E5F1F4FFE01F490CFCF0E94E31776
:103CF0008E01CBCF08950C947A1E0E947B1E609398
:103D0000B5027093B6028093B7029093B8020C94F8
:103D1000D91A08950C947D1E0F931F930091B5023C
:103D20001091B6022091B7023091B802602B712B2E
:103D3000822B932B1F910F910C947D1E0F931F9339
:103D40000091B5021091B6022091B7023091B802ED
:103D500060237123822393231F910F910C947D1E66
:103D60000F931F930091B5021091B6022091B702F4
:103D70003091B80260277127822793271F910F91F6
:103D80000C947D1E0C947A1E0C94C21E0E94C41EBC
:103D90006093B1027093B2028093B3029093B40225
:103DA0000C94D91A60E070E0CB010C94C61E0F93FE
:103DB0001F9341E050E060E070E08A019B0104C085
:103DC000000F111F221F331F8A95D2F7C901B801B6
:103DD0001F910F910C94C61E0F931F9341E050E06A
:103DE00060E070E004C0440F551F661F771F8A957E
:103DF000D2F78091B1029091B202A091B302B0913A
:103E0000B4028A019B01082B192B2A2B3B2BC901D9
:103E1000B8011F910F910C94C61E0F931F9341E0A0
:103E200050E060E070E004C0440F551F661F771F2C
:103E30008A95D2F7CB01BA016095709580959095DF
:103E40000091B1021091B2022091B3023091B402FC
:103E500060237123822393231F910F910C94C61E1C
:103E60000F931F9341E050E060E070E004C0440F06
:103E7000551F661F771F8A95D2F78091B1029091E6
:103E8000B202A091B302B091B4028A019B0108274B
:103E900019272A273B27C901B8011F910F910C94BC
:103EA000C61E0F931F930091B1021091B202209190
:103EB000B3023091B402602B712B822B932B1F9194
:103EC0000F910C94C61E0F931F930091B102109195
:103ED000B2022091B3023091B40260237123822395
:103EE00093231F910F910C94C61E0F931F93009163
:103EF000B1021091B2022091B3023091B402602756
:103F00007127822793271F910F910C94C61E089545
:103F10002FE0929F800D1124982F977041E001C0EF
:103F2000440F9A95EAF786958695869595E0899F40
:103F3000F0011124E158FD4F90E080E070E05191D4
:103F4000DF0111979B01082E02C0369527950A9430
:103F5000E2F7217021952527242325272C9301960C
:103F60008530910561F708952FE0929F800D11240F
:103F7000982F977086958695869525E0829FF0010B
:103F80001124E158FD4F50E040E080E0219130E005
:103F9000092E02C0369527950A94E2F7217033273F
:103FA000042E01C0220F0A94EAF7822B4F5F5F4F65
:103FB0004530510559F70895BF92CF92DF92EF92A5
:103FC000FF920F931F93CF93DF938C01C090B102A8
:103FD000D090B202E090B302F090B4028091B502AA
:103FE0009091B602A091B702B091B802C82AD92A1E
:103FF000EA2AFB2ACFE1D0E0BC2ED701C6010C2E65
:1040000004C0B695A795979587950A94D2F780FD39
:104010000EC0219788F7B12C8B2DDF91CF911F9186
:104020000F91FF90EF90DF90CF90BF900895B8016F
:104030008C2F0E94E905019761F3EECFCF93DF93B8
:10404000EC010E94DC1FBE01DF91CF910C94E905C9
:104050001F93CF93DF93EB0190914602992331F0A8
:10406000CB01DF91CF911F910C941E20882379F012
:10407000CB010E94DC1F182F682FCE010E94881FE1
:10408000BE01812FDF91CF911F910C94E905CB01E7
:104090000E94B41F182FF4CF682F809117019091C0
:1040A00018010C946522682F8091170190911801D6
:1040B0000C94702280911701909118010C947B222E
:1040C0008091B90285958595859508958091B9026D
:1040D000877008959091B902977081E009F480E0AB
:1040E00008958091DD0208959091DD02892B8093DF
:1040F000DD02089580959091DD0298239093DD0272
:1041000008951092DD0208959091DC02892B80932E
:10411000DC02089580959091DC0298239093DC0254
:1041200008951092DC0208959091DB02892B809310
:10413000DB02089580959091DB0298239093DB0237
:1041400008951092DB0208958091BA0208950895AF
:104150000C94A7209091BA02981721F08093BA028C
:104160000C94A82008958091BA02882329F0109217
:10417000BA0280E00C94A8200895E0911701F09114
:1041800018018091DD028083E0911701F091180100
:1041900080819091DC02892B8083E0911701F0915E
:1041A000180180819091DB02892B80839091BA0263
:1041B000992381F0E0911701F09118018081892BFA
:1041C000808380911701909118010E94D121811163
:1041D0000E94B32080911701909118010C948716CA
:1041E00008950C94F02098E0899F90011124622B8F
:1041F0006093B9020E94EC1E8091B9028595859565
:1042000085950C94F1201092B90280E00C94F12075
:104210009091B902809589238093B902282F277045
:1042200071F4282F082E000C330B9217130639F067
:104230008595859585950E940D1F0C940321089501
:104240006FEF7FEF90E080E00C94202F90E080E013
:104250000E94FC2E21E08C3E9E4F09F020E0822F30
:10426000089582E090E00C94EE2E83E090E00C94B0
:10427000EE2ECF9384E090E00E94EE2EC82F81E2D4
:1042800090E00E94EE2E982F8C2FCF910895CF931F
:10429000C92F682F84E090E00E94022F6C2F81E2EA
:1042A00090E0CF910C94022FAB01BC018FE090E025
:1042B0000C94142FAB01BC0183E190E00C94142FFB
:1042C00060E070E0CB010C945A2160E070E0CB011B
:1042D0000E9454210C9460216CEE7EEF90E080E00F
:1042E0000E94202F60E082E090E00E94022F60E0B8
:1042F00083E090E00E94022F1092B5021092B60265
:104300001092B7021092B80260E084E090E00E9440
:10431000022F60E081E290E00E94022F60E085E0E1
:1043200090E00E94022F60E086E090E00E94022F61
:104330006FEF87E090E00E94022F40E050E0BA016A
:1043400088E090E00E94142F60E08DE090E00E94F1
:10435000022F40E050E0BA0188E190E00E94142F63
:1043600060E087E190E00E94022F40E050E0BA0157
:104370008CE190E00E94142F60E080E290E00E94C7
:10438000022F40E050E0BA0188E190E00E94142F33
:104390000C9465210C946C21682F8EE090E00C94B5
:1043A000022FFC01329680912B01882321F080910D
:1043B00058039EE187FF96E080E0915008F408954D
:1043C00021912223D1F38F5FF8CF662301F1209151
:1043D0002B012223F1F02091580327FF1AC0462F0A
:1043E0004695469546954E3190F4677021E030E051
:1043F00002C0220F331F6A95E2F7840F911DFC0162
:10440000828190E02823392381E0232B69F480E026
:104410000895FC01329608962191261721F0E8179D
:10442000F907D1F7F4CF81E008959C01FC013296A1
:104430009FEF80E04191461751F09F3F19F44111E1
:1044400001C0982F8F5F8630A9F79F3F09F4089528
:10445000290F311D97FD3A95F90162830895FC01FA
:10446000329608962191261303C0DF0111971C9202
:10447000E817F907B9F70895E62FE695E695E6956A
:10448000EE3168F4E80FF92FF11D677021E030E09C
:1044900001C0220F6A95EAF78281822B82830895F8
:1044A000E62FE695E695E695EE3170F4E80FF92FE4
:1044B000F11D677021E030E001C0220F6A95EAF734
:1044C0002095828128232283089520912B01222385
:1044D00029F02091580327FD0C943C220C941522BE
:1044E00020912B01222329F02091580327FD0C94C1
:1044F00050220C942F22FC01329680912B018823AC
:1045000051F08091580387FF06C08EE1DF011D92B4
:104510008A95E9F7089586E0F9CF089508950C94F7
:104520008E220E948F2280915E03843009F439C06C
:104530001092DF0288E190E020E40FB6F894A8958D
:10454000809360000FBE2093600080E00E94D5053C
:104550000E949B0F8091E00281110AC081E080934C
:10456000E0028091250381708093E1020E94CE0ECB
:104570000E948F2283B7817F846083BF83B781606D
:1045800083BF7894889583B78E7F83BF0FB6F894E6
:10459000A89580916000886180936000109260000F
:1045A0000FBE08950895CF930E948D220E94510856
:1045B0000E94D222C0E08C2F0E94DE07892B31F4AA
:1045C000CF5FC530C1F780E0CF91089581E0FCCF87
:1045D00008950C94E8220E94EF1A0E947B160E9414
:1045E000D5051092E0028091E10281110E94930FA3
:1045F0000E94E00E0C94E9221F921FB61F92112414
:104600008F939F93AF93BF938091DF02811113C06B
:104610008091540390915503A0915603B091570394
:104620004196A11DB11D8093540390935503A0930F
:104630005603B0935703BF91AF919F918F911F90F5
:104640001FBE1F90189582E084BD93E095BD9AEF40
:1046500097BD80936E0008952FB7F894809154030E
:1046600090915503A0915603B09157032FBF089521
:104670002FB7F894609154037091550380915603BD
:10468000909157032FBF08959C014FB7F8948091E4
:10469000540390915503A0915603B09157034FBF17
:1046A000821B930B089578941F921FB61F921124BA
:1046B0008F939F93AF93BF93809154039091550331
:1046C000A0915603B09157030196A11DB11D80938F
:1046D000540390935503A0935603B0935703BF918F
:1046E000AF919F918F911F901FBE1F90189581E0F1
:1046F0008093E00080E28093D8001092C9008FE19F
:104700009EE40197F1F700C0000087E090EBDC0128
:104710008093670390936803A0936903B0936A033F
:1047200088E19CE00FB6F894A895809360000FBED6
:1047300090936000FFCF0C9430110E9451082FEF2E
:1047400086E791E0215080409040E1F700C00000F2
:104750000E94510880E00E94DE0780FF04C00E9492
:104760009B230C94772308950E942621811102C077
:104770000E94CA210E9431218093DE020E943921C9
:1047800090935903809358030E943521682F70E05D
:1047900090E080E00E948A1E6091B1027091B202A6
:1047A0008091B3029091B4020C94C41E8091E802EF
:1047B00080FF12C060911E0185E0689FB001112446
:1047C000759567957595679560387105A8F56115BC
:1047D0007105A1F1862F089581FF09C060911E0126
:1047E00085E0689FB001112475956795EDCF6091C4
:1047F0001E0182FD0AC08091E7028823D1F09091CA
:104800001D0160911E01891728F085E0689FB001A5
:104810001124DACF869FB001112485E0869F900194
:10482000879F300D1124692F70E0C9010E94112E5D
:10483000CBCF65E070E0CECF8FE7089581E008959B
:104840008091E80280FF0CC060911A0170E07595BC
:104850006795759567956115710549F1862F0895DE
:1048600081FF06C060911A0170E075956795F3CFDE
:1048700060911A0182FD0BC09091E6029923A1F08C
:104880006091190180911A01961738F0682F70E035
:104890006038710500F38FE70895899FC0011124E6
:1048A00070E00E94112EF4CF61E070E0D7CF81E07C
:1048B0000895803F31F40E94D62381958093EC02C5
:1048C0000895813F19F40E94D623F8CF823F31F436
:1048D0000E94D62381958093EB020895833F19F4BB
:1048E0000E94D623F8CF893F29F40E942024809388
:1048F000ED0208958A3F21F40E9420248195F7CF8C
:104900008B3F31F40E94202481958093EE0208951C
:104910008C3F19F40E942024F8CF843F31F4809119
:10492000EA0281608093EA020895853F21F4809134
:10493000EA028260F7CF863F21F48091EA02846028
:10494000F1CF873F21F48091EA028860EBCF883F66
:1049500021F48091EA028061E5CF8D3F31F48091AE
:10496000E80281608093E80208958E3F21F48091EF
:10497000E8028260F7CF8F3FB9F78091E802846048
:10498000F1CF9091EB02803F59F48091EC0287FFC8
:104990000DC01092EC0291110BC01092E70208C0FA
:1049A000813F81F48091EC0218169CF3992381F0E9
:1049B0008091ED029091EE02892B09F064C0109273
:1049C000E6020895823F49F497FFF0CF1092EB0280
:1049D0008091EC028111ECCFE0CF833F19F41916DE
:1049E000ACF3E4CF2091ED02893F29F41216F4F6DE
:1049F0001092ED02DBCF8A3F19F427FFD7CFF8CF13
:104A00002091EE028B3F29F427FFD0CF1092EE02C7
:104A1000CDCF8C3F19F41216CCF3C8CF843F31F4BC
:104A20008091EA028E7F8093EA02C0CF853F21F415
:104A30008091EA028D7FF7CF863F21F48091EA02D0
:104A40008B7FF1CF873F21F48091EA02877FEBCF04
:104A5000883F21F48091EA028F7EE5CF8D3F31F4CB
:104A60008091E8028E7F8093E802A0CF8E3F21F4F0
:104A70008091E8028D7FF7CF8F3F09F097CF80912B
:104A8000E8028B7FF0CF08950E942C239C01909127
:104A9000EB028091EC02982B21F03093E5022093F9
:104AA000E4029091ED028091EE02982B21F0309378
:104AB000E3022093E20289EE92E00C94A116EF92B9
:104AC000FF920F931F93CF93DF9300D000D000D0BD
:104AD000CDB7DEB786E0E9EEF2E0DE011196019097
:104AE0000D928A95E1F7E090EB02F090EC020091D4
:104AF000ED021091EE021092EB021092EC02109275
:104B0000ED021092EE028E2D8F2991F08091E40239
:104B10009091E5020E944423AC019091E702992311
:104B200009F43FC080911F018417150608F447C09F
:104B3000802F812B91F08091E2029091E3020E94FC
:104B40004423AC019091E602992309F477C0809147
:104B50001B018417150608F47FC08091EB02909129
:104B6000EC02892B9091ED02892B9091EE02892B1A
:104B700011F00E94442586E0FE013196A9EEB2E0D4
:104B800001900D928A95E1F726960FB6F894DEBF54
:104B90000FBECDBFDF91CF911F910F91FF90EF908E
:104BA0000895209120018AE0289F90011124241764
:104BB000350708F0BDCF9F5F9093E70202C09F3F8B
:104BC000D1F7EE2059F00E94D6239FEF1E140CF46B
:104BD00091E0899F802D11248093EB02FF2059F0F2
:104BE0000E94D6239FEF1F140CF491E0899F802D23
:104BF00011248093EC023091EB02332309F498CF17
:104C00002091EC02222309F493CF45EB3403C00139
:104C10001124992359F09093EB0245EB2403900162
:104C20001124332339F03093EC0282CF81E080935A
:104C3000EB02F3CF81E08093EC027ACF20911C014C
:104C40008AE0289F900111242417350708F085CFAA
:104C50009F5F9093E60202C09F3FD1F7002359F077
:104C60000E9420249FEF10160CF491E0899F802D64
:104C700011248093ED02112359F00E9420249FEF0C
:104C800011160CF491E0899F802D11248093EE027F
:104C90003091ED02332309F460CF2091EE022223FC
:104CA00009F45BCF45EB3403C0011124992359F07B
:104CB0009093ED0245EB240390011124332339F046
:104CC0003093EE024ACF81E08093ED02F3CF81E092
:104CD0008093EE0242CF86E0E9EEF2E0DF011D9222
:104CE0008A95E9F71092E7021092E6021092E80224
:104CF000089580910F030895CF93DF9300D00F9212
:104D0000CDB7DEB790915E03943011F589837B8334
:104D10006A839093E9008FEF9091E800815095FDB0
:104D200006C095ED9A95F1F700008111F5CF8091BD
:104D3000E80085FF0DC050E040E063E070E0CE0188
:104D400001960E9403298091E8008E778093E80005
:104D50000F900F900F90DF91CF910895BC0184E0E8
:104D60000C947C26BC0183E00C947C269C0184E09E
:104D70008093E9009FEF8091E800915085FD06C087
:104D800085ED8A95F1F700009111F5CF8091E8004B
:104D900085FF0CC050E040E066E070E0C9010E9471
:104DA00003298091E8008E778093E8000895CF93DF
:104DB000DF93EC0180912B018823B1F1809158039E
:104DC00087FF32C060E284E08093E9008FEF90912A
:104DD000E800815095FD06C095ED9A95F1F7000029
:104DE0008111F5CF8091E80085FF1BC080912B01D8
:104DF00070E050E040E0811104C050E040E068E025
:104E000070E0CE010E9403298091E8008E778093A4
:104E1000E80080E2FE01AFEEB2E001900D928A95CB
:104E2000E1F7DF91CF91089568E081E0CDCFCF9396
:104E3000FC01603221F580915E03843001F5C09160
:104E4000E900CF702091EC00922F917020FD90E846
:104E5000C92B82E08093E9008091E80080FF0CC0BC
:104E600050E040E060E270E0CF010E9403298091B1
:104E7000E8008E778093E800CF70C093E900CF916F
:104E8000089580915D03811109C00E94E22A0E9469
:104E90003F2B8091E20084608093E200089510929D
:104EA0005D030895089508950C94EB2242E061ECAF
:104EB00081E00E945E2A42E261EC84E00E945E2A68
:104EC00042E261EC82E00E945E2A42E260EC83E012
:104ED0000C945E2A80916003833009F461C030F441
:104EE0008130D1F1823009F49DC008958A3009F4EF
:104EF00089C08B3009F46FC0893009F050C08091AF
:104F00005F03813209F04BC0809163039091640389
:104F1000009719F0029709F042C08091E800877F5E
:104F20008093E8008091E80082FF35C09091F30003
:104F30008091F200029729F48091F1008B7F8130FB
:104F400021F48091F10080930F038091E8008B772A
:104F50008093E8000C94922A80915F03813AF9F4DF
:104F60008091E800877F8093E800809163039091AF
:104F70006403892B61F460E28FEE92E070E00E949E
:104F8000A1298091E8008B778093E800089560E084
:104F900090E080E0F3CF80915E038111C3CF08954C
:104FA00080915F03813AD9F7809163039091640304
:104FB000892BA9F78091E800877F8093E800809192
:104FC000E80080FFFCCF80912B018093F10080915D
:104FD000E8008E77BDCF80915F03813201F7809129
:104FE000630390916403892BD1F68091E800877F59
:104FF0008093E8000E94922A8091610380932B01A4
:105000000C94EF1A80915F03813249F68091E80099
:10501000877F8093E8000E94922A809162038093A8
:105020001003089580915F03813A09F0B8CF809111
:10503000E800877F8093E8008091E80080FFFCCF44
:1050400080911003C2CFCDB7DEB7A0970FB6F8940A
:10505000DEBF0FBECDBF84B7877F84BF0FB6F89485
:10506000A895809160008861809360001092600034
:105070000FBE80E890E00FB6F894809361009093A3
:1050800061000FBE0E94E9160E94E22A0E943F2B97
:105090008091E20084608093E20078940E94C82DA1
:1050A0000E94F51681E291E00E94761613E080914D
:1050B0005E03853059F00E94011780915E038430B1
:1050C00091F00E94F3160E94F416F1CF0E949122F3
:1050D00080915C03882359F30E94D322882339F3FB
:1050E0000E94ED28E4CF1093E9008091E80082FF50
:1050F000E8CF8091E80090E085FF09C050E040E0F3
:1051000060E270E0CE0101960E94522991E0809108
:10511000E8008B778093E800992399F260E2CE0152
:1051200001960E94E811CDCF0C949628292F3327A1
:105130002330310521F168F42130310509F443C0F1
:105140002230310509F444C090E080E030E020E0F6
:1051500026C02132310551F122323105A9F76330E1
:10516000710590F7FB01EE0FFF1FE053FE4F20810A
:10517000318163537E4FFB01808190E010C09927FD
:105180008130910581F0009729F00297E9F6EEEB66
:10519000F5E002C0E8EDF5E0849190E09F01FA01AE
:1051A000318320830895ECECF5E0F6CF6330710590
:1051B00058F6660F771FFB01EA52FE4F20813181BE
:1051C00089E090E0ECCF82E190E027E336E0E7CFA2
:1051D0008BE590E02CED35E0E2CF80E189BD82E106
:1051E00089BD09B400FEFDCF8091D8008F7D8093EA
:1051F000D8008091E00082608093E0008091E00020
:1052000081FDFCCF0895AF92BF92CF92DF92FF92C3
:105210000F931F93CF93DF936C01EB018A010E94E0
:10522000B12AF82E811123C00115110539F0F801BA
:1052300080819181C81BD90BC80ED91EB12CA12C1D
:105240002097A9F08091E80085FD22C08091E800B8
:105250008E778093E80001151105A1F0F801808197
:105260009181A80EB91EB182A08285E0F82E8F2D03
:10527000DF91CF911F910F91FF90DF90CF90BF9062
:10528000AF9008950E94B12A8823D1F2F82EEFCF73
:10529000F60181916F018093F1002197FFEFAF1A22
:1052A000BF0ACECFAF92BF92CF92DF92FF920F9301
:1052B0001F93CF93DF936C01EB018A010E94B12A07
:1052C000F82E811123C00115110539F0F8018081F4
:1052D0009181C81BD90BC80ED91EB12CA12C2097C7
:1052E000A9F08091E80085FD22C08091E8008B77CD
:1052F0008093E80001151105A1F0F80180819181EA
:10530000A80EB91EB182A08285E0F82E8F2DDF9104
:10531000CF911F910F91FF90DF90CF90BF90AF90F2
:1053200008950E94B12A8823D1F2F82EEFCF809100
:10533000F100F60181936F012197FFEFAF1ABF0AC9
:10534000CECFFC0180916503909166038617970785
:10535000A0F06115710529F49091E8009E77909373
:10536000E80090E06115710551F4911108C0809139
:10537000E80082FF34C080E00895BC01F2CF809144
:105380005E038823C1F18530C1F18091E80083FD7F
:1053900030C08091E80082FDEACF8091E80080FF74
:1053A000E1CF8091F3002091F200382F6115710553
:1053B00019F02830310558F091E02830310509F016
:1053C00090E02091E8002E772093E800CBCF8191E8
:1053D0008093F100615071092F5F3F4FE7CF8091BB
:1053E0005E03882341F0853041F08091E80083FF1F
:1053F000BECF81E0089582E0089583E00895FC0126
:10540000809165039091660386179707A0F0611558
:10541000710529F48091E8008E778093E80090E090
:105420006115710551F4911108C08091E80082FF67
:1054300035C080E00895BC01F2CF80915E038823DF
:10544000C9F18530C9F18091E80083FD31C08091B8
:10545000E80082FDEACF8091E80080FFE1CF8091F3
:10546000F3002091F200382F6115710519F02830F2
:10547000310558F091E02830310509F090E0809135
:10548000E8008E778093E800CBCF84918093F10081
:105490003196615071092F5F3F4FE6CF80915E03D7
:1054A000882341F0853041F08091E80083FFBDCF33
:1054B00081E0089582E0089583E00895982F973061
:1054C00028F08F708093E90081E008959093E900BF
:1054D000242F762F50E0981731F07091EC00209136
:1054E000ED005091F00021FD02C09F5FE8CF3091A8
:1054F000EB003E7F3093EB003091ED003D7F309329
:10550000ED003091EB0031603093EB007093EC00D4
:105510002093ED005093F0002091EE0027FDE5CFA1
:1055200080E0089580915F0387FF13C08091E800B9
:1055300082FF06C08091E8008B778093E80004C06A
:1055400080915E038111F2CF089580915E038823DC
:10555000D9F38091E80080FFF8CF8091E8008E7742
:10556000ECCF2091E4003091E50095E6A90120916F
:10557000EC00822F817020FF06C08091E80080FF40
:1055800006C080E008952091E80022FD1AC08091B5
:105590005E03882389F0853089F08091EB0085FDDA
:1055A0000FC02091E4003091E50042175307F9F253
:1055B0009150E1F684E0089582E0089583E0089533
:1055C00081E008950E94502B0E94582BE0EEF0E0FD
:1055D000808181608083E8EDF0E080818F77808337
:1055E00019BCA7EDB0E08C918E7F8C9380818F7E6B
:1055F000808310925D0308950F931F93CF93DF93E1
:105600000E94502B0E94582BC8EDD0E088818F77E4
:10561000888388818068888388818F7D888319BC8E
:1056200010925E0310925A0310925C0310925B0377
:1056300000EE10E0F80180818B7F8083888181609B
:10564000888342E060E080E00E945E2AE1EEF0E0C4
:1056500080818E7F8083E2EEF0E0808181608083B4
:10566000808188608083F80180818E7F808388813B
:1056700080618883DF91CF911F910F910895E8EDAC
:10568000F0E080818F7E8083E7EDF0E080818160B3
:10569000808384E082BF81E080935D030C94FC2AC8
:1056A000E8EDF0E080818E7F80831092E200089523
:1056B0001092DA001092E10008951F920F920FB637
:1056C0000F9211242F933F934F935F936F937F9388
:1056D0008F939F93AF93BF93EF93FF938091E100DC
:1056E00082FF0BC08091E20082FF07C08091E10041
:1056F0008B7F8093E1000E94C72D8091DA0080FFAC
:1057000019C08091D80080FF15C08091DA008E7F8B
:105710008093DA008091D90080FF96C080E189BD36
:1057200082E189BD09B400FEFDCF81E080935E0374
:105730000E9441278091E10080FF19C08091E20022
:1057400080FF15C08091E2008E7F8093E2008091FF
:10575000E20080618093E2008091D80080628093B3
:10576000D80019BC85E080935E030E945327809186
:10577000E10084FF2BC08091E20084FF27C080E11C
:1057800089BD82E189BD89B5982F917080FFFBCFDB
:105790008091D8008F7D8093D8008091E1008F7E2A
:1057A0008093E1008091E2008F7E8093E2008091FF
:1057B000E20081608093E20080915A03882309F41B
:1057C00049C084E080935E030E9454278091E100E9
:1057D00083FF29C08091E20083FF25C08091E10012
:1057E000877F8093E10082E080935E0310925A03EA
:1057F0008091E1008E7F8093E1008091E2008E7FB6
:105800008093E2008091E20080618093E20042E0B8
:1058100060E080E00E945E2A8091F00088608093C2
:10582000F0000E945227FF91EF91BF91AF919F919D
:105830008F917F916F915F914F913F912F910F9039
:105840000FBE0F901F90189519BC10925E030E9416
:105850004F2770CF8091E30087FD93E090935E0324
:10586000B3CF1F920F920FB60F9211242F933F9335
:105870004F935F936F937F938F939F93AF93BF9358
:10588000CF93DF93EF93FF93D091E900DF70809186
:10589000EC00C82FC17080FDC0E81092E900809133
:1058A000F000877F8093F00078940E94752C10920E
:1058B000E9008091F00088608093F000CD2BCF70DC
:1058C000C093E900FF91EF91DF91CF91BF91AF912C
:1058D0009F918F917F916F915F914F913F912F9108
:1058E0000F900FBE0F901F9018951F93CF93DF93CB
:1058F000CDB7DEB7AA970FB6F894DEBF0FBECDBF07
:105900008FE593E02091F100FC012193CF01F3E0BA
:1059100087369F07B9F70E946A278091E80083FFC6
:105920001EC180915F03909160039A3008F017C107
:10593000E92FF0E0E456F04D0C94472E803899F0B2
:10594000823809F00CC1809163038F70873008F0B2
:1059500006C18093E9008091EB0085FB882780F9E0
:105960001092E90006C080915B0390915C03911155
:1059700082609091E800977F9093E8008093F10017
:105980001092F1008091E8008E77E5C0882309F439
:10599000D3C0823009F0E3C0809161038111D6C089
:1059A000809163038F702FEF280F263008F0D7C047
:1059B0008093E9002091EB0020FFC8C0933031F4C0
:1059C0008091EB0080628093EB00C0C09091EB006F
:1059D00090619093EB0021E030E001C0220F8A95A6
:1059E000EAF72093EA001092EA008091EB008860C9
:1059F000EACF8111B4C0109161031F778091E30059
:105A00008078812B8093E3008091E800877F8093EA
:105A1000E8000E94922A8091E80080FFFCCF8091EC
:105A2000E30080688093E30082E0111183E08093BB
:105A30005E0395C08058823008F091C08091610368
:105A4000909162038C3D23E09207A1F583E08A8365
:105A50008AE289834FB7F894DE01139620E03EE096
:105A600051E2E32FF0E050935700E49120FF03C090
:105A7000E295EF703F5FEF708E2F90E0EA30C0F05C
:105A8000C7968D939D932F5F243159F74FBF809117
:105A9000E800877F8093E8006AE270E0CE0101961B
:105AA0000E94A1298091E8008B778093E80057C07D
:105AB000C096E7CF6091630370916403AE014F5FBE
:105AC0005F4F0E949428BC01892B09F448C0909133
:105AD000E800977F9093E80089819A810E94FF29CE
